{
  "contractName": "Crowdsale",
  "abi": [
    {
      "constant": true,
      "inputs": [],
      "name": "activeToken_",
      "outputs": [
        {
          "name": "",
          "type": "address"
        }
      ],
      "payable": false,
      "stateMutability": "view",
      "type": "function"
    },
    {
      "constant": true,
      "inputs": [],
      "name": "rate",
      "outputs": [
        {
          "name": "",
          "type": "uint256"
        }
      ],
      "payable": false,
      "stateMutability": "view",
      "type": "function"
    },
    {
      "constant": true,
      "inputs": [],
      "name": "weiRaised",
      "outputs": [
        {
          "name": "",
          "type": "uint256"
        }
      ],
      "payable": false,
      "stateMutability": "view",
      "type": "function"
    },
    {
      "constant": true,
      "inputs": [],
      "name": "developer",
      "outputs": [
        {
          "name": "",
          "type": "address"
        }
      ],
      "payable": false,
      "stateMutability": "view",
      "type": "function"
    },
    {
      "constant": true,
      "inputs": [],
      "name": "inactiveToken_",
      "outputs": [
        {
          "name": "",
          "type": "address"
        }
      ],
      "payable": false,
      "stateMutability": "view",
      "type": "function"
    },
    {
      "inputs": [
        {
          "name": "_rate",
          "type": "uint256"
        },
        {
          "name": "_developer",
          "type": "address"
        },
        {
          "name": "_token",
          "type": "address"
        }
      ],
      "payable": false,
      "stateMutability": "nonpayable",
      "type": "constructor"
    },
    {
      "payable": true,
      "stateMutability": "payable",
      "type": "fallback"
    },
    {
      "anonymous": false,
      "inputs": [
        {
          "indexed": true,
          "name": "purchaser",
          "type": "address"
        },
        {
          "indexed": true,
          "name": "beneficiary",
          "type": "address"
        },
        {
          "indexed": false,
          "name": "value",
          "type": "uint256"
        },
        {
          "indexed": false,
          "name": "amount",
          "type": "uint256"
        }
      ],
      "name": "TokenPurchase",
      "type": "event"
    },
    {
      "constant": false,
      "inputs": [
        {
          "name": "_beneficiary",
          "type": "address"
        }
      ],
      "name": "buyTokens",
      "outputs": [],
      "payable": true,
      "stateMutability": "payable",
      "type": "function"
    }
  ],
  "bytecode": "0x608060405234801561001057600080fd5b50604051606080610f958339810160409081528151602083015191909201516000831161003c57600080fd5b600160a060020a038216151561005157600080fd5b600383905560028054600160a060020a03808516600160a060020a031992831617909255600080549284169290911691909117905561008e6100d4565b604051809103906000f0801580156100aa573d6000803e3d6000fd5b5060018054600160a060020a031916600160a060020a0392909216919091179055506100e4915050565b604051610b7a8061041b83390190565b610328806100f36000396000f3006080604052600436106100775763ffffffff7c01000000000000000000000000000000000000000000000000000000006000350416631807cd5f81146100795780632c4e722e146100aa5780634042b66f146100d1578063ca4b208b146100e6578063da45be0a146100fb578063ec8ac4d814610110575b005b34801561008557600080fd5b5061008e610124565b60408051600160a060020a039092168252519081900360200190f35b3480156100b657600080fd5b506100bf610133565b60408051918252519081900360200190f35b3480156100dd57600080fd5b506100bf610139565b3480156100f257600080fd5b5061008e61013f565b34801561010757600080fd5b5061008e61014e565b610077600160a060020a036004351661015d565b600154600160a060020a031681565b60035481565b60045481565b600254600160a060020a031681565b600054600160a060020a031681565b34600061016a8383610284565b610173826102a9565b600454909150610189908363ffffffff6102c616565b600490815560008054600254604080517f23b872dd000000000000000000000000000000000000000000000000000000008152600160a060020a0392831695810195909552878216602486015260448501869052519116926323b872dd9260648083019360209390929083900390910190829087803b15801561020b57600080fd5b505af115801561021f573d6000803e3d6000fd5b505050506040513d602081101561023557600080fd5b505060408051838152602081018390528151600160a060020a0386169233927f623b3804fa71d67900d064613da8f94b9617215ee90799290593e1745087ad18929081900390910190a3505050565b600160a060020a038216151561029957600080fd5b8015156102a557600080fd5b5050565b60006102c0600354836102d390919063ffffffff16565b92915050565b818101828110156102c057fe5b60008215156102e4575060006102c0565b508181028183828115156102f457fe5b04146102c057fe00a165627a7a72305820b55c9699bef645374e6df131f12d1eefd11dfafa53a365e08e2e82e8f3f584230029608060405260038054600160a860020a03191633179055610b55806100256000396000f3006080604052600436106100e55763ffffffff7c010000000000000000000000000000000000000000000000000000000060003504166305d2035b81146100ea578063095ea7b31461011357806318160ddd1461013757806323b872dd1461015e57806340c10f191461018857806342966c68146101ac57806366188463146101c657806370a08231146101ea578063715018a61461020b57806379cc6790146102205780637d64bcb4146102445780638da5cb5b14610259578063a9059cbb1461028a578063d73dd623146102ae578063dd62ed3e146102d2578063f2fde38b146102f9575b600080fd5b3480156100f657600080fd5b506100ff61031a565b604080519115158252519081900360200190f35b34801561011f57600080fd5b506100ff600160a060020a036004351660243561033b565b34801561014357600080fd5b5061014c6103a1565b60408051918252519081900360200190f35b34801561016a57600080fd5b506100ff600160a060020a03600435811690602435166044356103a7565b34801561019457600080fd5b506100ff600160a060020a036004351660243561048c565b3480156101b857600080fd5b506101c460043561057e565b005b3480156101d257600080fd5b506100ff600160a060020a036004351660243561058b565b3480156101f657600080fd5b5061014c600160a060020a036004351661067a565b34801561021757600080fd5b506101c4610695565b34801561022c57600080fd5b506101c4600160a060020a0360043516602435610703565b34801561025057600080fd5b506100ff610711565b34801561026557600080fd5b5061026e6107b7565b60408051600160a060020a039092168252519081900360200190f35b34801561029657600080fd5b506100ff600160a060020a03600435166024356107c6565b3480156102ba57600080fd5b506100ff600160a060020a0360043516602435610893565b3480156102de57600080fd5b5061014c600160a060020a036004358116906024351661092c565b34801561030557600080fd5b506101c4600160a060020a0360043516610957565b60035474010000000000000000000000000000000000000000900460ff1681565b336000818152600260209081526040808320600160a060020a038716808552908352818420869055815186815291519394909390927f8c5be1e5ebec7d5bd14f71427d1e84f3dd0314c0f7b2291e5b200ac8c7c3b925928290030190a350600192915050565b60015490565b600160a060020a0383166000908152602081905260408120548211156103cc57600080fd5b600160a060020a03831615156103e157600080fd5b600160a060020a03841660009081526020819052604090205461040a908363ffffffff61097716565b600160a060020a03808616600090815260208190526040808220939093559085168152205461043f908363ffffffff61098916565b600160a060020a03808516600081815260208181526040918290209490945580518681529051919392881692600080516020610b0a83398151915292918290030190a35060019392505050565b60035460009074010000000000000000000000000000000000000000900460ff16156104b757600080fd5b6001546104ca908363ffffffff61098916565b600155600160a060020a0383166000908152602081905260409020546104f6908363ffffffff61098916565b600160a060020a03841660008181526020818152604091829020939093558051858152905191927f0f6798a560793a54c3bcfe86a93cde1e73087d944c0ea20544137d412139688592918290030190a2604080518381529051600160a060020a03851691600091600080516020610b0a8339815191529181900360200190a350600192915050565b610588338261099c565b50565b336000908152600260209081526040808320600160a060020a03861684529091528120548083106105df57336000908152600260209081526040808320600160a060020a0388168452909152812055610614565b6105ef818463ffffffff61097716565b336000908152600260209081526040808320600160a060020a03891684529091529020555b336000818152600260209081526040808320600160a060020a0389168085529083529281902054815190815290519293927f8c5be1e5ebec7d5bd14f71427d1e84f3dd0314c0f7b2291e5b200ac8c7c3b925929181900390910190a35060019392505050565b600160a060020a031660009081526020819052604090205490565b600354600160a060020a031633146106ac57600080fd5b600354604051600160a060020a03909116907ff8df31144d9c2f0f6b59d69b8b98abd5459d07f2742c4df920b25aae33c6482090600090a26003805473ffffffffffffffffffffffffffffffffffffffff19169055565b61070d828261099c565b5050565b600354600090600160a060020a0316331461072b57600080fd5b60035474010000000000000000000000000000000000000000900460ff161561075357600080fd5b6003805474ff00000000000000000000000000000000000000001916740100000000000000000000000000000000000000001790556040517fae5184fba832cb2b1f702aca6117b8d265eaf03ad33eb133f19dde0f5920fa0890600090a150600190565b600354600160a060020a031681565b336000908152602081905260408120548211156107e257600080fd5b600160a060020a03831615156107f757600080fd5b33600090815260208190526040902054610817908363ffffffff61097716565b3360009081526020819052604080822092909255600160a060020a03851681522054610849908363ffffffff61098916565b600160a060020a03841660008181526020818152604091829020939093558051858152905191923392600080516020610b0a8339815191529281900390910190a350600192915050565b336000908152600260209081526040808320600160a060020a03861684529091528120546108c7908363ffffffff61098916565b336000818152600260209081526040808320600160a060020a0389168085529083529281902085905580519485525191937f8c5be1e5ebec7d5bd14f71427d1e84f3dd0314c0f7b2291e5b200ac8c7c3b925929081900390910190a350600192915050565b600160a060020a03918216600090815260026020908152604080832093909416825291909152205490565b600354600160a060020a0316331461096e57600080fd5b61058881610a8b565b60008282111561098357fe5b50900390565b8181018281101561099657fe5b92915050565b600160a060020a0382166000908152602081905260409020548111156109c157600080fd5b600160a060020a0382166000908152602081905260409020546109ea908263ffffffff61097716565b600160a060020a038316600090815260208190526040902055600154610a16908263ffffffff61097716565b600155604080518281529051600160a060020a038416917fcc16f5dbb4873280815c1ee09dbd06736cffcc184412cf7a71a0fdb75d397ca5919081900360200190a2604080518281529051600091600160a060020a03851691600080516020610b0a8339815191529181900360200190a35050565b600160a060020a0381161515610aa057600080fd5b600354604051600160a060020a038084169216907f8be0079c531659141344cd1fd0a4f28419497f9722a3daafe3b4186f6b6457e090600090a36003805473ffffffffffffffffffffffffffffffffffffffff1916600160a060020a03929092169190911790555600ddf252ad1be2c89b69c2b068fc378daa952ba7f163c4a11628f55a4df523b3efa165627a7a7230582040e8f76bcab580ae5cf648a9e94aa610dd94c9a44524b530d7c05e4797eeaa1e0029",
  "source": "pragma solidity ^0.4.24;\n\nimport \"../token/ERC20/ERC20.sol\";\nimport '../utility/SafeMath.sol';\nimport \"../token/ERC20/SafeERC20.sol\";\nimport '../token/ERC20/GNIToken.sol';\n\n\n/**\n * @title Crowdsale\n * @dev Crowdsale is a base contract for managing a token crowdsale,\n * allowing investors to purchase tokens with ether. This contract implements\n * such functionality in its most fundamental form and can be extended to provide additional\n * functionality and/or custom behavior.\n * The external interface represents the basic interface for purchasing tokens, and conform\n * the base architecture for crowdsales. They are *not* intended to be modified / overridden.\n * The internal interface conforms the extensible and modifiable surface of crowdsales. Override\n * the methods to add functionality. Consider using 'super' where appropriate to concatenate\n * behavior.\n */\ncontract Crowdsale {\n  using SafeMath for uint256;\n  using SafeERC20 for ERC20;\n\n  GNIToken public inactiveToken_;\n  GNIToken public activeToken_;\n\n  address public developer;\n  // How many token units a buyer gets per wei.\n  // The rate is the conversion between wei and the smallest and indivisible token unit.\n  // So, if you are using a rate of 1 with a DetailedERC20 token with 3 decimals called TOK\n  // 1 wei will give you 1 unit, or 0.001 TOK.\n  uint256 public rate;\n\n  // Amount of wei raised\n  uint256 public weiRaised;\n\n  /**\n   * Event for token purchase logging\n   * @param purchaser who paid for the tokens\n   * @param beneficiary who got the tokens\n   * @param value weis paid for purchase\n   * @param amount amount of tokens purchased\n   */\n  event TokenPurchase(\n    address indexed purchaser,\n    address indexed beneficiary,\n    uint256 value,\n    uint256 amount\n  );\n\n  /**\n   * @param _rate Number of token units a buyer gets per wei\n   * @param _developer Address where collected funds will be forwarded to\n   * @param _token Address of the token being sold\n   */\n  constructor(uint256 _rate, address _developer, GNIToken _token) public {\n    require(_rate > 0);\n    require(_developer != address(0));\n\n    rate = _rate;\n    developer = _developer;\n    inactiveToken_ = _token;\n    activeToken_ = new GNIToken();\n  }\n\n  // -----------------------------------------\n  // Crowdsale external interface\n  // -----------------------------------------\n\n  /**\n   * @dev fallback function ***DO NOT OVERRIDE***\n   */\n  function () external payable {\n    /* buyTokens(msg.sender); */\n  }\n  /**\n   * @dev low level token purchase ***DO NOT OVERRIDE***\n   * @param _beneficiary Address performing the token purchase\n   */\n  function buyTokens(address _beneficiary) public payable {\n\n    uint256 weiAmount = msg.value;\n    _preValidatePurchase(_beneficiary, weiAmount);\n\n    // calculate token amount to be created\n    uint256 tokens = _getTokenAmount(weiAmount);\n\n    // update state\n    weiRaised = weiRaised.add(weiAmount);\n\n    GNIToken(inactiveToken_).transferFrom(developer, _beneficiary, tokens);\n\n    emit TokenPurchase(\n      msg.sender,\n      _beneficiary,\n      weiAmount,\n      tokens\n    );\n\n    /* _updatePurchasingState(_beneficiary, weiAmount); */\n\n    /* _forwardFunds(); */\n    /* _postValidatePurchase(_beneficiary, weiAmount); */\n  }\n\n  // -----------------------------------------\n  // Internal interface (extensible)\n  // -----------------------------------------\n\n  /**\n   * @dev Validation of an incoming purchase. Use require statements to revert state when conditions are not met. Use `super` in contracts that inherit from Crowdsale to extend their validations.\n   * Example from CappedCrowdsale.sol's _preValidatePurchase method:\n   *   super._preValidatePurchase(_beneficiary, _weiAmount);\n   *   require(weiRaised.add(_weiAmount) <= cap);\n   * @param _beneficiary Address performing the token purchase\n   * @param _weiAmount Value in wei involved in the purchase\n   */\n  function _preValidatePurchase(\n    address _beneficiary,\n    uint256 _weiAmount\n  )\n    internal\n  {\n    require(_beneficiary != address(0));\n    require(_weiAmount != 0);\n  }\n\n  /**\n   * @dev Validation of an executed purchase. Observe state and use revert statements to undo rollback when valid conditions are not met.\n   * @param _beneficiary Address performing the token purchase\n   * @param _weiAmount Value in wei involved in the purchase\n   */\n  /* function _postValidatePurchase(\n    address _beneficiary,\n    uint256 _weiAmount\n  )\n    internal\n  {\n    // optional override\n  } */\n\n  /**\n   * @dev Source of tokens. Override this method to modify the way in which the crowdsale ultimately gets and sends its tokens.\n   * @param _beneficiary Address performing the token purchase\n   * @param _tokenAmount Number of tokens to be emitted\n   */\n  /* function _deliverTokens(\n    address _beneficiary,\n    uint256 _tokenAmount\n  )\n    internal\n  {\n    token.safeTransfer(_beneficiary, _tokenAmount);\n  } */\n\n  /**\n   * @dev Executed when a purchase has been validated and is ready to be executed. Not necessarily emits/sends tokens.\n   * @param _beneficiary Address receiving the tokens\n   * @param _tokenAmount Number of tokens to be purchased\n   */\n  /* function _processPurchase(\n    address _beneficiary,\n    uint256 _tokenAmount\n  )\n    internal\n  {\n    _deliverTokens(_beneficiary, _tokenAmount);\n  } */\n\n  /**\n   * @dev Override for extensions that require an internal state to check for validity (current user contributions, etc.)\n   * @param _beneficiary Address receiving the tokens\n   * @param _weiAmount Value in wei involved in the purchase\n   */\n  /* function _updatePurchasingState(\n    address _beneficiary,\n    uint256 _weiAmount\n  )\n    internal\n  {\n    // optional override\n  } */\n\n  /**\n   * @dev Override to extend the way in which ether is converted to tokens.\n   * @param _weiAmount Value in wei to be converted into tokens\n   * @return Number of tokens that can be purchased with the specified _weiAmount\n   */\n  function _getTokenAmount(uint256 _weiAmount)\n    internal view returns (uint256)\n  {\n    return _weiAmount.mul(rate);\n  }\n\n  /**\n   * @dev Determines how ETH is stored/forwarded on purchases.\n   */\n\n   /**\n   This works, but throws a runtime error and terminates the rest of the request\n   The issuse is either related to an unfilfilled require/revert/assert statement or exceeded gas limit\n   There doesnt seem to be any requires, and I cant see the internal workings of transfer.\n   I've tried:\n   1. Changing gas in truffle.js (maybe theres another way to change gas)\n   2. removing the function after this (_postValidatePurchase)\n   3. removing fallback function\n\n   RESOLUTION: remove this function call completely.\n    */\n  /* function _forwardFunds() internal {\n      developer.transfer(msg.value);\n  } */\n}\n",
  "sourcePath": "/Users/steven/genie-portal/truffle/contracts/crowdsale/Crowdsale.sol",
  "compiler": {
    "name": "solc",
    "version": "0.4.24+commit.e67f0147.Emscripten.clang"
  },
  "schemaVersion": "2.0.1",
  "updatedAt": "2018-10-24T20:33:22.638Z"
}