{
  "contractName": "GNITokenCrowdsale",
  "abi": [
    {
      "constant": true,
      "inputs": [
        {
          "name": "",
          "type": "uint256"
        }
      ],
      "name": "projects",
      "outputs": [
        {
          "name": "",
          "type": "address"
        }
      ],
      "payable": false,
      "stateMutability": "view",
      "type": "function"
    },
    {
      "constant": true,
      "inputs": [],
      "name": "hasClosed",
      "outputs": [
        {
          "name": "",
          "type": "bool"
        }
      ],
      "payable": false,
      "stateMutability": "view",
      "type": "function"
    },
    {
      "constant": true,
      "inputs": [],
      "name": "activeToken_",
      "outputs": [
        {
          "name": "",
          "type": "address"
        }
      ],
      "payable": false,
      "stateMutability": "view",
      "type": "function"
    },
    {
      "constant": true,
      "inputs": [],
      "name": "totalValuation",
      "outputs": [
        {
          "name": "",
          "type": "uint256"
        }
      ],
      "payable": false,
      "stateMutability": "view",
      "type": "function"
    },
    {
      "constant": true,
      "inputs": [],
      "name": "rate",
      "outputs": [
        {
          "name": "",
          "type": "uint256"
        }
      ],
      "payable": false,
      "stateMutability": "view",
      "type": "function"
    },
    {
      "constant": true,
      "inputs": [
        {
          "name": "",
          "type": "uint256"
        }
      ],
      "name": "investors",
      "outputs": [
        {
          "name": "addr",
          "type": "address"
        },
        {
          "name": "id",
          "type": "uint256"
        },
        {
          "name": "voteCredit",
          "type": "uint256"
        }
      ],
      "payable": false,
      "stateMutability": "view",
      "type": "function"
    },
    {
      "constant": true,
      "inputs": [],
      "name": "weiRaised",
      "outputs": [
        {
          "name": "",
          "type": "uint256"
        }
      ],
      "payable": false,
      "stateMutability": "view",
      "type": "function"
    },
    {
      "constant": true,
      "inputs": [],
      "name": "openingTime",
      "outputs": [
        {
          "name": "",
          "type": "uint256"
        }
      ],
      "payable": false,
      "stateMutability": "view",
      "type": "function"
    },
    {
      "constant": true,
      "inputs": [],
      "name": "doomsDay",
      "outputs": [
        {
          "name": "",
          "type": "uint256"
        }
      ],
      "payable": false,
      "stateMutability": "view",
      "type": "function"
    },
    {
      "constant": true,
      "inputs": [],
      "name": "developer",
      "outputs": [
        {
          "name": "",
          "type": "address"
        }
      ],
      "payable": false,
      "stateMutability": "view",
      "type": "function"
    },
    {
      "constant": true,
      "inputs": [],
      "name": "inactiveToken_",
      "outputs": [
        {
          "name": "",
          "type": "address"
        }
      ],
      "payable": false,
      "stateMutability": "view",
      "type": "function"
    },
    {
      "constant": false,
      "inputs": [
        {
          "name": "_beneficiary",
          "type": "address"
        }
      ],
      "name": "buyTokens",
      "outputs": [],
      "payable": true,
      "stateMutability": "payable",
      "type": "function"
    },
    {
      "inputs": [
        {
          "name": "_openingTime",
          "type": "uint256"
        },
        {
          "name": "_doomsDay",
          "type": "uint256"
        },
        {
          "name": "_rate",
          "type": "uint256"
        },
        {
          "name": "_developer",
          "type": "address"
        },
        {
          "name": "_token",
          "type": "address"
        }
      ],
      "payable": false,
      "stateMutability": "nonpayable",
      "type": "constructor"
    },
    {
      "payable": true,
      "stateMutability": "payable",
      "type": "fallback"
    },
    {
      "anonymous": false,
      "inputs": [
        {
          "indexed": false,
          "name": "voter",
          "type": "address"
        },
        {
          "indexed": false,
          "name": "projectId",
          "type": "uint256"
        },
        {
          "indexed": false,
          "name": "amount",
          "type": "uint256"
        }
      ],
      "name": "LogVotes",
      "type": "event"
    },
    {
      "anonymous": false,
      "inputs": [
        {
          "indexed": true,
          "name": "purchaser",
          "type": "address"
        },
        {
          "indexed": true,
          "name": "beneficiary",
          "type": "address"
        },
        {
          "indexed": false,
          "name": "value",
          "type": "uint256"
        },
        {
          "indexed": false,
          "name": "amount",
          "type": "uint256"
        }
      ],
      "name": "TokenPurchase",
      "type": "event"
    },
    {
      "constant": true,
      "inputs": [
        {
          "name": "id",
          "type": "uint256"
        }
      ],
      "name": "getInfo",
      "outputs": [
        {
          "name": "",
          "type": "string"
        },
        {
          "name": "",
          "type": "uint256"
        },
        {
          "name": "",
          "type": "uint256"
        },
        {
          "name": "",
          "type": "uint256"
        },
        {
          "name": "",
          "type": "uint256"
        },
        {
          "name": "",
          "type": "bool"
        },
        {
          "name": "",
          "type": "uint256"
        },
        {
          "name": "",
          "type": "uint256"
        },
        {
          "name": "",
          "type": "address"
        }
      ],
      "payable": false,
      "stateMutability": "view",
      "type": "function"
    },
    {
      "constant": false,
      "inputs": [
        {
          "name": "_name",
          "type": "string"
        },
        {
          "name": "_manager",
          "type": "address"
        },
        {
          "name": "capitalRequired",
          "type": "uint256"
        },
        {
          "name": "_valuation",
          "type": "uint256"
        },
        {
          "name": "_lat",
          "type": "string"
        },
        {
          "name": "_lng",
          "type": "string"
        }
      ],
      "name": "pitchProject",
      "outputs": [],
      "payable": true,
      "stateMutability": "payable",
      "type": "function"
    },
    {
      "constant": false,
      "inputs": [
        {
          "name": "_projectVotedForId",
          "type": "uint256"
        }
      ],
      "name": "buyTokensAndVote",
      "outputs": [],
      "payable": true,
      "stateMutability": "payable",
      "type": "function"
    },
    {
      "constant": true,
      "inputs": [
        {
          "name": "id",
          "type": "uint256"
        }
      ],
      "name": "investor",
      "outputs": [
        {
          "name": "",
          "type": "address"
        }
      ],
      "payable": false,
      "stateMutability": "view",
      "type": "function"
    },
    {
      "constant": false,
      "inputs": [],
      "name": "activateProject",
      "outputs": [],
      "payable": false,
      "stateMutability": "nonpayable",
      "type": "function"
    },
    {
      "constant": false,
      "inputs": [],
      "name": "distributeDividends",
      "outputs": [],
      "payable": false,
      "stateMutability": "nonpayable",
      "type": "function"
    }
  ],
  "bytecode": "0x60806040523480156200001157600080fd5b5060405160a0806200377e83398101604090815281516020830151918301516060840151608090940151919390918484848484600083116200005257600080fd5b600160a060020a03821615156200006857600080fd5b600383905560028054600160a060020a03808516600160a060020a0319928316179092556000805492841692909116919091179055620000a76200011e565b604051809103906000f080158015620000c4573d6000803e3d6000fd5b5060018054600160a060020a031916600160a060020a039290921691909117905550505042821015620000f657600080fd5b818110156200010457600080fd5b60059190915560065550506000600755506200012f915050565b604051610b7a8062002c0483390190565b612ac5806200013f6000396000f300608060405260043610620000f55763ffffffff60e060020a60003504166303c833028114620000f7578063107046bd146200010f5780631515bc2b14620001465780631807cd5f14620001725780631a3cd59a146200018a578063295b9300146200026e5780632c4e722e14620002985780633cb78fe014620002b05780633feb5f2b14620002c85780634042b66f146200030b578063589679c71462000323578063b7a8807c1462000330578063c19b7bc01462000348578063c3d9053b1462000360578063ca4b208b146200037b578063da45be0a1462000393578063e072726214620003ab578063ec8ac4d81462000490575b005b3480156200010457600080fd5b50620000f5620004a6565b3480156200011c57600080fd5b506200012a600435620005c8565b60408051600160a060020a039092168252519081900360200190f35b3480156200015357600080fd5b506200015e620005f1565b604080519115158252519081900360200190f35b3480156200017f57600080fd5b506200012a620005f9565b3480156200019757600080fd5b50620001a560043562000608565b60405180806020018a81526020018981526020018881526020018781526020018615151515815260200185815260200184815260200183600160a060020a0316600160a060020a0316815260200182810382528b818151815260200191508051906020019080838360005b838110156200022a57818101518382015260200162000210565b50505050905090810190601f168015620002585780820380516001836020036101000a031916815260200191505b509a505050505050505050505060405180910390f35b3480156200027b57600080fd5b506200028662000af6565b60408051918252519081900360200190f35b348015620002a557600080fd5b506200028662000afc565b348015620002bd57600080fd5b50620000f562000b02565b348015620002d557600080fd5b50620002e360043562000e68565b60408051600160a060020a039094168452602084019290925282820152519081900360600190f35b3480156200031857600080fd5b506200028662000ea4565b620000f560043562000eaa565b3480156200033d57600080fd5b506200028662000f53565b3480156200035557600080fd5b506200028662000f59565b3480156200036d57600080fd5b506200012a60043562000f5f565b3480156200038857600080fd5b506200012a62000f91565b348015620003a057600080fd5b506200012a62000fa0565b6040805160206004803580820135601f8101849004840285018401909552848452620000f594369492936024939284019190819084018382808284375050604080516020601f60608a01358b0180359182018390048302840183018552818452989b600160a060020a038b35169b838c01359b958601359a91995097506080909401955091935091820191819084018382808284375050604080516020601f89358b018035918201839004830284018301909452808352979a99988101979196509182019450925082915084018382808284375094975062000faf9650505050505050565b620000f5600160a060020a036004351662001336565b6000806000600160009054906101000a9004600160a060020a0316600160a060020a03166318160ddd6040518163ffffffff1660e060020a028152600401602060405180830381600087803b158015620004ff57600080fd5b505af115801562000514573d6000803e3d6000fd5b505050506040513d60208110156200052b57600080fd5b5051600454909350620005479030319063ffffffff6200146616565b9150600090505b600954811015620005aa576200058f6009828154811015156200056d57fe5b6000918252602090912060049091020154600160a060020a031684846200147e565b620005a281600163ffffffff6200158516565b90506200054e565b600254620005c390600160a060020a031684846200147e565b505050565b6008805482908110620005d757fe5b600091825260209091200154600160a060020a0316905081565b600654421190565b600154600160a060020a031681565b6060600080600080600080600080600060088b8154811015156200062857fe5b6000918252602082200154604080517f06fdde030000000000000000000000000000000000000000000000000000000081529051600160a060020a03909216935083926306fdde039260048084019382900301818387803b1580156200068d57600080fd5b505af1158015620006a2573d6000803e3d6000fd5b505050506040513d6000823e601f3d908101601f191682016040526020811015620006cc57600080fd5b810190808051640100000000811115620006e557600080fd5b82016020810184811115620006f957600080fd5b81516401000000008111828201871017156200071457600080fd5b505092919050505081600160a060020a03166321a7cfe46040518163ffffffff1660e060020a028152600401602060405180830381600087803b1580156200075b57600080fd5b505af115801562000770573d6000803e3d6000fd5b505050506040513d60208110156200078757600080fd5b5051604080517fec61b0860000000000000000000000000000000000000000000000000000000081529051600160a060020a0385169163ec61b0869160048083019260209291908290030181600087803b158015620007e557600080fd5b505af1158015620007fa573d6000803e3d6000fd5b505050506040513d60208110156200081157600080fd5b5051604080517f6417d7b00000000000000000000000000000000000000000000000000000000081529051600160a060020a03861691636417d7b09160048083019260209291908290030181600087803b1580156200086f57600080fd5b505af115801562000884573d6000803e3d6000fd5b505050506040513d60208110156200089b57600080fd5b5051604080517e4dcde50000000000000000000000000000000000000000000000000000000081529051600160a060020a03871691624dcde59160048083019260209291908290030181600087803b158015620008f757600080fd5b505af11580156200090c573d6000803e3d6000fd5b505050506040513d60208110156200092357600080fd5b5051604080517f02fb0c5e0000000000000000000000000000000000000000000000000000000081529051600160a060020a038816916302fb0c5e9160048083019260209291908290030181600087803b1580156200098157600080fd5b505af115801562000996573d6000803e3d6000fd5b505050506040513d6020811015620009ad57600080fd5b5051604080517fc63840710000000000000000000000000000000000000000000000000000000081529051600160a060020a0389169163c63840719160048083019260209291908290030181600087803b15801562000a0b57600080fd5b505af115801562000a20573d6000803e3d6000fd5b505050506040513d602081101562000a3757600080fd5b5051604080517f4b6753bc0000000000000000000000000000000000000000000000000000000081529051600160a060020a038a1691634b6753bc9160048083019260209291908290030181600087803b15801562000a9557600080fd5b505af115801562000aaa573d6000803e3d6000fd5b505050506040513d602081101562000ac157600080fd5b810190808051906020019092919050505088889850995099509950995099509950995099509950509193959799909294969850565b60075481565b60035481565b60008060008062000b1262001593565b93509350821562000e6257600880548590811062000b2c57fe5b9060005260206000200160009054906101000a9004600160a060020a0316915081600160a060020a031663929aebdf6040518163ffffffff1660e060020a028152600401602060405180830381600087803b15801562000b8b57600080fd5b505af115801562000ba0573d6000803e3d6000fd5b505050506040513d602081101562000bb757600080fd5b505160008054600254604080517f79cc6790000000000000000000000000000000000000000000000000000000008152600160a060020a0392831660048201526024810186905290519495509116926379cc67909260448084019391929182900301818387803b15801562000c2b57600080fd5b505af115801562000c40573d6000803e3d6000fd5b5050600154600254604080517f40c10f19000000000000000000000000000000000000000000000000000000008152600160a060020a0392831660048201526024810187905290519190921693506340c10f19925060448083019260209291908290030181600087803b15801562000cb757600080fd5b505af115801562000ccc573d6000803e3d6000fd5b505050506040513d602081101562000ce357600080fd5b5050604080517fd705f387000000000000000000000000000000000000000000000000000000008152905162000d7c91600160a060020a0385169163d705f387916004808201926020929091908290030181600087803b15801562000d4757600080fd5b505af115801562000d5c573d6000803e3d6000fd5b505050506040513d602081101562000d7357600080fd5b5051856200173e565b62000e09600260009054906101000a9004600160a060020a031683600160a060020a031663d4cf7db66040518163ffffffff1660e060020a028152600401602060405180830381600087803b15801562000dd557600080fd5b505af115801562000dea573d6000803e3d6000fd5b505050506040513d602081101562000e0157600080fd5b505162001baa565b81600160a060020a0316630f15f4c06040518163ffffffff1660e060020a028152600401600060405180830381600087803b15801562000e4857600080fd5b505af115801562000e5d573d6000803e3d6000fd5b505050505b50505050565b600980548290811062000e7757fe5b6000918252602090912060049091020180546001820154600290920154600160a060020a03909116925083565b60045481565b62000eb53362001336565b62000ec08162001bfe565b600880548290811062000ecf57fe5b6000918252602082200154604080517f82ab890a0000000000000000000000000000000000000000000000000000000081523460048201529051600160a060020a03909216926382ab890a9260248084019382900301818387803b15801562000f3757600080fd5b505af115801562000f4c573d6000803e3d6000fd5b5050505050565b60055481565b60065481565b600060098281548110151562000f7157fe5b6000918252602090912060049091020154600160a060020a031692915050565b600254600160a060020a031681565b600054600160a060020a031681565b60008060008062000fc1878962001cff565b600054600254929650909450600160a060020a03908116916340c10f19911662000ff2878763ffffffff6200158516565b6040518363ffffffff1660e060020a0281526004018083600160a060020a0316600160a060020a0316815260200182815260200192505050602060405180830381600087803b1580156200104557600080fd5b505af11580156200105a573d6000803e3d6000fd5b505050506040513d60208110156200107157600080fd5b505060075462001088908863ffffffff6200158516565b60075562001097605a62001d50565b6008549150818a8a308a8c89898d8d620010b062001f36565b808b8152602001806020018a600160a060020a0316600160a060020a0316815260200189600160a060020a0316600160a060020a03168152602001888152602001878152602001868152602001858152602001806020018060200184810384528d818151815260200191508051906020019080838360005b838110156200114257818101518382015260200162001128565b50505050905090810190601f168015620011705780820380516001836020036101000a031916815260200191505b50848103835286518152865160209182019188019080838360005b83811015620011a55781810151838201526020016200118b565b50505050905090810190601f168015620011d35780820380516001836020036101000a031916815260200191505b50848103825285518152855160209182019187019080838360005b8381101562001208578181015183820152602001620011ee565b50505050905090810190601f168015620012365780820380516001836020036101000a031916815260200191505b509d5050505050505050505050505050604051809103906000f08015801562001263573d6000803e3d6000fd5b506008805460018101825560009182527ff3f7a9fe364faab93b216da50a3214154f22a0a2b415b23a84c8169e8b636ee301805473ffffffffffffffffffffffffffffffffffffffff1916600160a060020a038416908117909155604080517f51973ec9000000000000000000000000000000000000000000000000000000008152905193945090926351973ec99260048084019391929182900301818387803b1580156200131157600080fd5b505af115801562001326573d6000803e3d6000fd5b5050505050505050505050505050565b34600062001345838362001daa565b620013508262001dde565b60045490915062001368908363ffffffff6200158516565b600490815560008054600254604080517f23b872dd000000000000000000000000000000000000000000000000000000008152600160a060020a0392831695810195909552878216602486015260448501869052519116926323b872dd9260648083019360209390929083900390910190829087803b158015620013eb57600080fd5b505af115801562001400573d6000803e3d6000fd5b505050506040513d60208110156200141757600080fd5b505060408051838152602081018390528151600160a060020a0386169233927f623b3804fa71d67900d064613da8f94b9617215ee90799290593e1745087ad18929081900390910190a3505050565b6000828211156200147357fe5b508082035b92915050565b600154604080517f70a08231000000000000000000000000000000000000000000000000000000008152600160a060020a0386811660048301529151600093849384939116916370a082319160248082019260209290919082900301818787803b158015620014ec57600080fd5b505af115801562001501573d6000803e3d6000fd5b505050506040513d60208110156200151857600080fd5b505192506200152e858463ffffffff62001df716565b915062001542848363ffffffff62001df716565b604051909150600160a060020a0387169082156108fc029083906000818181858888f193505050501580156200157c573d6000803e3d6000fd5b50505050505050565b818101828110156200147857fe5b6000808080805b6008548110156200168a576008805482908110620015b457fe5b60009182526020909120015460088054600160a060020a039092169163705c5be5919086908110620015e257fe5b60009182526020808320909101546040805160e060020a63ffffffff8716028152600160a060020a0390921660048301525160248083019491928390030190829087803b1580156200163357600080fd5b505af115801562001648573d6000803e3d6000fd5b505050506040513d60208110156200165f57600080fd5b5051156200166f57809250600191505b6200168281600163ffffffff6200158516565b90506200159a565b828280156200173357506004546008805486908110620016a657fe5b9060005260206000200160009054906101000a9004600160a060020a0316600160a060020a031663d4cf7db66040518163ffffffff1660e060020a028152600401602060405180830381600087803b1580156200170257600080fd5b505af115801562001717573d6000803e3d6000fd5b505050506040513d60208110156200172e57600080fd5b505111155b945094505050509091565b60008054600254604080517f70a08231000000000000000000000000000000000000000000000000000000008152600160a060020a039283166004820152905184938493849384938493620018819316916370a0823191602480830192602092919082900301818887803b158015620017b657600080fd5b505af1158015620017cb573d6000803e3d6000fd5b505050506040513d6020811015620017e257600080fd5b505160008054604080517f18160ddd0000000000000000000000000000000000000000000000000000000081529051600160a060020a03909216926318160ddd926004808401936020939083900390910190829087803b1580156200184657600080fd5b505af11580156200185b573d6000803e3d6000fd5b505050506040513d60208110156200187257600080fd5b50519063ffffffff6200146616565b955062001895868963ffffffff62001df716565b9450600093505b60095484101562000e5d5760005460098054600160a060020a03909216916370a08231919087908110620018cc57fe5b906000526020600020906004020160000160009054906101000a9004600160a060020a03166040518263ffffffff1660e060020a0281526004018082600160a060020a0316600160a060020a03168152602001915050602060405180830381600087803b1580156200193d57600080fd5b505af115801562001952573d6000803e3d6000fd5b505050506040513d60208110156200196957600080fd5b505192506200197f838663ffffffff62001df716565b60005460098054929450600160a060020a03909116916379cc6790919087908110620019a757fe5b600091825260208220600491820201546040805160e060020a63ffffffff8716028152600160a060020a03909216928201929092526024810187905290516044808301939282900301818387803b15801562001a0257600080fd5b505af115801562001a17573d6000803e3d6000fd5b505060015460098054600160a060020a0390921693506340c10f199250908790811062001a4057fe5b60009182526020808320600492830201546040805160e060020a63ffffffff8816028152600160a060020a039092169382019390935260248101889052915160448084019492939192918390030190829087803b15801562001aa157600080fd5b505af115801562001ab6573d6000803e3d6000fd5b505050506040513d602081101562001acd57600080fd5b5050600980548590811062001ade57fe5b90600052602060002090600402016003016000888152602001908152602001600020549050600060098581548110151562001b1557fe5b600091825260208083208b8452600360049093020191909101905260409020556009805462001b6c9183918790811062001b4b57fe5b9060005260206000209060040201600201546200158590919063ffffffff16565b600980548690811062001b7b57fe5b600091825260209091206002600490920201015562001ba284600163ffffffff6200158516565b93506200189c565b604051600160a060020a0383169082156108fc029083906000818181858888f1935050505015801562001be1573d6000803e3d6000fd5b5060045462001bf7908263ffffffff6200146616565b6004555050565b62001c0862001f47565b336000908152600a6020526040812054151562001cf45750338082526009805460208085018281526000948552600a90915260408085208390556001830184559290935283517f6e1540171b6c0c960b71a7020d9f60077f6af931a8bbf590da0223dacf75c7af60048302908101805473ffffffffffffffffffffffffffffffffffffffff1916600160a060020a039093169290921790915592517f6e1540171b6c0c960b71a7020d9f60077f6af931a8bbf590da0223dacf75c7b0840155908301517f6e1540171b6c0c960b71a7020d9f60077f6af931a8bbf590da0223dacf75c7b1909201919091555b620005c38362001e0d565b6000808062001d15858563ffffffff6200146616565b905062001d2e6003548262001ee290919063ffffffff16565b60035462001d4490869063ffffffff62001ee216565b92509250509250929050565b60055460065442919081831080159062001d6c57506006544211155b151562001d7857600080fd5b62001da162001d9185621a5e0063ffffffff62001ee216565b6006549063ffffffff6200158516565b60065550505050565b60055460065442919081831080159062001dc657506006544211155b151562001dd257600080fd5b62000f4c858562001f0f565b6000620014786003548362001ee290919063ffffffff16565b6000818381151562001e0557fe5b049392505050565b336000908152600a60205260409020546009805462001e5f92349291811062001e3257fe5b60009182526020808320868452600360049093020191909101905260409020549063ffffffff6200158516565b336000908152600a602052604090205460098054909190811062001e7f57fe5b6000918252602080832085845260036004909302019190910181526040918290209290925580513381529182018390523482820152517f1cfed8e6708dd89e1137769a805a4f0bb9a3bd615d751d5b2c078d2f3b34c5749181900360600190a150565b600082151562001ef55750600062001478565b5081810281838281151562001f0657fe5b04146200147857fe5b600160a060020a038216151562001f2557600080fd5b80151562001f3257600080fd5b5050565b604051610b278062001f7383390190565b6060604051908101604052806000600160a060020a03168152602001600081526020016000815250905600608060405234801561001057600080fd5b50604051610b27380380610b278339810160409081528151602080840151928401516060850151608086015160a087015160c088015160e08901516101008a01516101208b015160008a9055998b018051999b909a97999698959794969395929491810193910191610087916001918c019061011d565b5060028054600160a060020a03808b16600160a060020a03199283161790925560038054928a1692909116919091179055600586905560068590556007849055600883905581516100df90600990602085019061011d565b5080516100f390600a90602084019061011d565b50506000600b555050600c805460ff1916905550505063013d23804201600455506101b892505050565b828054600181600116156101000203166002900490600052602060002090601f016020900481019282601f1061015e57805160ff191683800117855561018b565b8280016001018555821561018b579182015b8281111561018b578251825591602001919060010190610170565b5061019792915061019b565b5090565b6101b591905b8082111561019757600081556001016101a1565b90565b610960806101c76000396000f30060806040526004361061010d5763ffffffff60e060020a6000350416624dcde58114610112578063015e72ec1461013957806302fb0c5e146101c357806306fdde03146101ec5780630f15f4c01461020157806321a7cfe414610218578063272666e31461022d5780634b6753bc146102425780634d7c09dd1461025757806351973ec91461026c57806355d576cc146102815780636417d7b014610296578063705c5be5146102ab57806382ab890a146102d9578063929aebdf146102f1578063af640d0f14610306578063c63840711461031b578063d0e30db014610330578063d4cf7db614610338578063d705f3871461034d578063ec61b08614610362578063f25874c814610377575b600080fd5b34801561011e57600080fd5b5061012761038c565b60408051918252519081900360200190f35b34801561014557600080fd5b5061014e610392565b6040805160208082528351818301528351919283929083019185019080838360005b83811015610188578181015183820152602001610170565b50505050905090810190601f1680156101b55780820380516001836020036101000a031916815260200191505b509250505060405180910390f35b3480156101cf57600080fd5b506101d8610420565b604080519115158252519081900360200190f35b3480156101f857600080fd5b5061014e610429565b34801561020d57600080fd5b50610216610483565b005b34801561022457600080fd5b5061012761049a565b34801561023957600080fd5b506101276104a0565b34801561024e57600080fd5b506101276104a6565b34801561026357600080fd5b506101d86104ac565b34801561027857600080fd5b506102166104b5565b34801561028d57600080fd5b5061014e6106c0565b3480156102a257600080fd5b5061012761071b565b3480156102b757600080fd5b506101d873ffffffffffffffffffffffffffffffffffffffff60043516610721565b3480156102e557600080fd5b5061021660043561084e565b3480156102fd57600080fd5b5061012761087f565b34801561031257600080fd5b50610127610885565b34801561032757600080fd5b5061012761088b565b610216610891565b34801561034457600080fd5b5061012761090f565b34801561035957600080fd5b50610127610915565b34801561036e57600080fd5b5061012761091b565b34801561038357600080fd5b50610127610921565b60085481565b600a805460408051602060026001851615610100026000190190941693909304601f810184900484028201840190925281815292918301828280156104185780601f106103ed57610100808354040283529160200191610418565b820191906000526020600020905b8154815290600101906020018083116103fb57829003601f168201915b505050505081565b600c5460ff1681565b60018054604080516020600284861615610100026000190190941693909304601f810184900484028201840190925281815292918301828280156104185780601f106103ed57610100808354040283529160200191610418565b600c805460ff191660011790556104986104b5565b565b60055481565b60045490565b60045481565b600c5460ff1690565b7f2870b0d0558b1786ef247a7bb0787eaae7392b072f7ca327b464981f23fb0e9260005460016005546006546007546008546009600a600b54600c60009054906101000a900460ff16604051808b8152602001806020018a815260200189815260200188815260200187815260200180602001806020018681526020018515151515815260200184810384528d8181546001816001161561010002031660029004815260200191508054600181600116156101000203166002900480156105bd5780601f10610592576101008083540402835291602001916105bd565b820191906000526020600020905b8154815290600101906020018083116105a057829003601f168201915b50508481038352885460026000196101006001841615020190911604808252602090910190899080156106315780601f1061060657610100808354040283529160200191610631565b820191906000526020600020905b81548152906001019060200180831161061457829003601f168201915b50508481038252875460026000196101006001841615020190911604808252602090910190889080156106a55780601f1061067a576101008083540402835291602001916106a5565b820191906000526020600020905b81548152906001019060200180831161068857829003601f168201915b50509d505050505050505050505050505060405180910390a1565b6009805460408051602060026001851615610100026000190190941693909304601f810184900484028201840190925281815292918301828280156104185780601f106103ed57610100808354040283529160200191610418565b60075481565b600c5460009060ff1615801561073957506000600b54115b8015610746575042600454115b80156107ca57508173ffffffffffffffffffffffffffffffffffffffff1663f25874c86040518163ffffffff1660e060020a028152600401602060405180830381600087803b15801561079857600080fd5b505af11580156107ac573d6000803e3d6000fd5b505050506040513d60208110156107c257600080fd5b5051600b5410155b8061084857508173ffffffffffffffffffffffffffffffffffffffff16634d7c09dd6040518163ffffffff1660e060020a028152600401602060405180830381600087803b15801561081b57600080fd5b505af115801561082f573d6000803e3d6000fd5b505050506040513d602081101561084557600080fd5b50515b92915050565b600b54610861908263ffffffff61092716565b600b556004546108799061a8c063ffffffff61092716565b60045550565b60075490565b60005481565b600b5481565b600034151561089f57600080fd5b60025473ffffffffffffffffffffffffffffffffffffffff1633146108c357600080fd5b50600354604051349173ffffffffffffffffffffffffffffffffffffffff169082156108fc029083906000818181858888f1935050505015801561090b573d6000803e3d6000fd5b5050565b60065490565b60085490565b60065481565b600b5490565b8181018281101561084857fe00a165627a7a72305820697a2b319c5b13bcc1c6e56e8ce4492f8bf4b17ff8647dccb73dd0b8a3b83d060029a165627a7a72305820291d4d68bd63b6b9bbfb4dc99cc9519423a5b8d24bc8f387ed7ab41a01c644620029608060405260038054600160a860020a03191633179055610b55806100256000396000f3006080604052600436106100e55763ffffffff7c010000000000000000000000000000000000000000000000000000000060003504166305d2035b81146100ea578063095ea7b31461011357806318160ddd1461013757806323b872dd1461015e57806340c10f191461018857806342966c68146101ac57806366188463146101c657806370a08231146101ea578063715018a61461020b57806379cc6790146102205780637d64bcb4146102445780638da5cb5b14610259578063a9059cbb1461028a578063d73dd623146102ae578063dd62ed3e146102d2578063f2fde38b146102f9575b600080fd5b3480156100f657600080fd5b506100ff61031a565b604080519115158252519081900360200190f35b34801561011f57600080fd5b506100ff600160a060020a036004351660243561033b565b34801561014357600080fd5b5061014c6103a1565b60408051918252519081900360200190f35b34801561016a57600080fd5b506100ff600160a060020a03600435811690602435166044356103a7565b34801561019457600080fd5b506100ff600160a060020a036004351660243561048c565b3480156101b857600080fd5b506101c460043561057e565b005b3480156101d257600080fd5b506100ff600160a060020a036004351660243561058b565b3480156101f657600080fd5b5061014c600160a060020a036004351661067a565b34801561021757600080fd5b506101c4610695565b34801561022c57600080fd5b506101c4600160a060020a0360043516602435610703565b34801561025057600080fd5b506100ff610711565b34801561026557600080fd5b5061026e6107b7565b60408051600160a060020a039092168252519081900360200190f35b34801561029657600080fd5b506100ff600160a060020a03600435166024356107c6565b3480156102ba57600080fd5b506100ff600160a060020a0360043516602435610893565b3480156102de57600080fd5b5061014c600160a060020a036004358116906024351661092c565b34801561030557600080fd5b506101c4600160a060020a0360043516610957565b60035474010000000000000000000000000000000000000000900460ff1681565b336000818152600260209081526040808320600160a060020a038716808552908352818420869055815186815291519394909390927f8c5be1e5ebec7d5bd14f71427d1e84f3dd0314c0f7b2291e5b200ac8c7c3b925928290030190a350600192915050565b60015490565b600160a060020a0383166000908152602081905260408120548211156103cc57600080fd5b600160a060020a03831615156103e157600080fd5b600160a060020a03841660009081526020819052604090205461040a908363ffffffff61097716565b600160a060020a03808616600090815260208190526040808220939093559085168152205461043f908363ffffffff61098916565b600160a060020a03808516600081815260208181526040918290209490945580518681529051919392881692600080516020610b0a83398151915292918290030190a35060019392505050565b60035460009074010000000000000000000000000000000000000000900460ff16156104b757600080fd5b6001546104ca908363ffffffff61098916565b600155600160a060020a0383166000908152602081905260409020546104f6908363ffffffff61098916565b600160a060020a03841660008181526020818152604091829020939093558051858152905191927f0f6798a560793a54c3bcfe86a93cde1e73087d944c0ea20544137d412139688592918290030190a2604080518381529051600160a060020a03851691600091600080516020610b0a8339815191529181900360200190a350600192915050565b610588338261099c565b50565b336000908152600260209081526040808320600160a060020a03861684529091528120548083106105df57336000908152600260209081526040808320600160a060020a0388168452909152812055610614565b6105ef818463ffffffff61097716565b336000908152600260209081526040808320600160a060020a03891684529091529020555b336000818152600260209081526040808320600160a060020a0389168085529083529281902054815190815290519293927f8c5be1e5ebec7d5bd14f71427d1e84f3dd0314c0f7b2291e5b200ac8c7c3b925929181900390910190a35060019392505050565b600160a060020a031660009081526020819052604090205490565b600354600160a060020a031633146106ac57600080fd5b600354604051600160a060020a03909116907ff8df31144d9c2f0f6b59d69b8b98abd5459d07f2742c4df920b25aae33c6482090600090a26003805473ffffffffffffffffffffffffffffffffffffffff19169055565b61070d828261099c565b5050565b600354600090600160a060020a0316331461072b57600080fd5b60035474010000000000000000000000000000000000000000900460ff161561075357600080fd5b6003805474ff00000000000000000000000000000000000000001916740100000000000000000000000000000000000000001790556040517fae5184fba832cb2b1f702aca6117b8d265eaf03ad33eb133f19dde0f5920fa0890600090a150600190565b600354600160a060020a031681565b336000908152602081905260408120548211156107e257600080fd5b600160a060020a03831615156107f757600080fd5b33600090815260208190526040902054610817908363ffffffff61097716565b3360009081526020819052604080822092909255600160a060020a03851681522054610849908363ffffffff61098916565b600160a060020a03841660008181526020818152604091829020939093558051858152905191923392600080516020610b0a8339815191529281900390910190a350600192915050565b336000908152600260209081526040808320600160a060020a03861684529091528120546108c7908363ffffffff61098916565b336000818152600260209081526040808320600160a060020a0389168085529083529281902085905580519485525191937f8c5be1e5ebec7d5bd14f71427d1e84f3dd0314c0f7b2291e5b200ac8c7c3b925929081900390910190a350600192915050565b600160a060020a03918216600090815260026020908152604080832093909416825291909152205490565b600354600160a060020a0316331461096e57600080fd5b61058881610a8b565b60008282111561098357fe5b50900390565b8181018281101561099657fe5b92915050565b600160a060020a0382166000908152602081905260409020548111156109c157600080fd5b600160a060020a0382166000908152602081905260409020546109ea908263ffffffff61097716565b600160a060020a038316600090815260208190526040902055600154610a16908263ffffffff61097716565b600155604080518281529051600160a060020a038416917fcc16f5dbb4873280815c1ee09dbd06736cffcc184412cf7a71a0fdb75d397ca5919081900360200190a2604080518281529051600091600160a060020a03851691600080516020610b0a8339815191529181900360200190a35050565b600160a060020a0381161515610aa057600080fd5b600354604051600160a060020a038084169216907f8be0079c531659141344cd1fd0a4f28419497f9722a3daafe3b4186f6b6457e090600090a36003805473ffffffffffffffffffffffffffffffffffffffff1916600160a060020a03929092169190911790555600ddf252ad1be2c89b69c2b068fc378daa952ba7f163c4a11628f55a4df523b3efa165627a7a7230582040e8f76bcab580ae5cf648a9e94aa610dd94c9a44524b530d7c05e4797eeaa1e0029",
  "source": "pragma solidity 0.4.24;\nimport './TimedCrowdsale.sol';\nimport '../utility/SafeMath.sol';\nimport '../Project.sol';\nimport '../token/ERC20/GNIToken.sol';\n\ncontract GNITokenCrowdsale is TimedCrowdsale {\n  using SafeMath for uint256;\n  uint256 public totalValuation;\n\n  constructor\n      (\n        uint256 _openingTime,\n        uint256 _doomsDay,\n        uint256 _rate,\n        address _developer,\n        GNIToken _token\n      )\n      public\n      Crowdsale(_rate, _developer, _token)\n      TimedCrowdsale(_openingTime, _doomsDay) {\n          totalValuation = 0;\n  }\n\n  event LogVotes (\n    address voter,\n    uint256 projectId,\n    uint256 amount\n    );\n\n\n  address[] public projects;\n\n  function getInfo(uint256 id) public view returns(\n    string, uint256, uint256, uint256, uint256, bool, uint256, uint256, address\n    ) {\n      address projectAddr = projects[id];\n      return (\n        Project(projectAddr).name(),\n        Project(projectAddr).valuation(),\n        Project(projectAddr).capitalRequired(),\n        Project(projectAddr).developerTokens(),\n        Project(projectAddr).investorTokens(),\n        Project(projectAddr).active(),\n        Project(projectAddr).voteCount(),\n        Project(projectAddr).closingTime(),\n        projectAddr\n        );\n      }\n\n//after this, the developer has to approve this contract to spend the amount of inactive tokens associated with developers on its behalf\n function pitchProject(string _name, address _manager, uint capitalRequired, uint256 _valuation, string _lat, string _lng) public payable {\n   (uint256 developerTokens, uint256 investorTokens) = tokensToIssue(_valuation, capitalRequired);\n\n   GNIToken(inactiveToken_).mint(developer, developerTokens.add(investorTokens));\n   totalValuation = totalValuation.add(_valuation);\n\n     // Increase crowdsale duation by 90 days\n   _extendDoomsDay(90);\n\n    uint256 _id = projects.length;\n    //the following line causes a migration error...\n    address projectAddr = new Project(_id, _name, _manager, address(this), _valuation, capitalRequired, developerTokens, investorTokens, _lat, _lng);\n    projects.push(projectAddr);\n    Project(projectAddr).log();\n }\n\n function tokensToIssue (uint256 valuation, uint256 investorValue) private view returns (uint256, uint256) {\n   uint256 developerValue = valuation.sub(investorValue);\n\n   return (developerValue.mul(rate), investorValue.mul(rate));\n }\n\n //before this, the investor has to approve this contract to spend the amount of tokens they'll be buying on their behalf. this is needed to activate tokens later.\n function buyTokensAndVote (uint256 _projectVotedForId) public payable {\n   //add require statement that makes sure the projet isnt already active\n   buyTokens(msg.sender);\n   updateInvestor(_projectVotedForId);\n   Project(projects[_projectVotedForId]).update(msg.value);\n }\n\n struct Investor {\n   address addr;\n   uint256 id;\n   uint256 voteCredit;\n   //maps from projectId to number of votes for that project\n   mapping(uint256 => uint256) votes;\n }\n\n Investor[] public investors;\n mapping(address => uint256) internal investorIds;\n\n function investor (uint256 id) public view returns(address) {\n   return investors[id].addr;\n }\n\n function updateInvestor (uint256 _projectId) private {\n   if (investorIds[msg.sender] == 0) {\n     Investor memory newInvestor;\n\n     newInvestor.addr = msg.sender;\n\n     uint256 id = investors.length;\n     newInvestor.id = id;\n     investorIds[msg.sender] = id;\n\n     investors.push(newInvestor);\n   }\n\n   updateInvestorVotes(_projectId);\n }\n\n function updateInvestorVotes(uint256 _projectId) internal {\n   investors[investorIds[msg.sender]].votes[_projectId] = investors[investorIds[msg.sender]].votes[_projectId].add(msg.value);\n   emit LogVotes(msg.sender, _projectId, msg.value);\n }\n\n function _extendDoomsDay(uint256 _days) internal onlyWhileOpen {\n    doomsDay = doomsDay.add(_days.mul(1728000));\n }\n\n function activateProject() public {\n    (uint256 projectId, bool canActivate) = projectToActivateDetails();\n\n    if(canActivate){\n      Project project = Project(projects[projectId]);\n\n      uint256 developerTokens = project.developerTokens_();\n      GNIToken(inactiveToken_).burnFrom(developer, developerTokens);\n      GNIToken(activeToken_).mint(developer, developerTokens);\n      updateInvestors(project.investorTokens_(), projectId);\n\n      forwardFunds(developer, project.capitalRequired_());\n      project.activate();\n    }\n  }\n\n  function projectToActivateDetails() private returns (uint256, bool) {\n    uint256 leadingProjectId;\n    bool candidateFound = false;\n\n    for(uint256 i = 0; i < projects.length; i = i.add(1)) {\n      if (Project(projects[i]).beats(projects[leadingProjectId])) {\n        leadingProjectId = i;\n        candidateFound = true;\n      }\n    }\n\n    return (leadingProjectId, candidateFound && Project(projects[leadingProjectId]).capitalRequired_() <= weiRaised);\n  }\n\n  function updateInvestors (uint256 tokens, uint256 projectId) private {\n    uint256 supply = GNIToken(inactiveToken_).totalSupply().sub(GNIToken(inactiveToken_).balanceOf(developer));\n    uint256 activationDivisor = supply.div(tokens);\n\n    for (uint256 i = 0; i < investors.length; i = i.add(1)) {\n\n      uint256 investorBalance = GNIToken(inactiveToken_).balanceOf(investors[i].addr);\n      uint256 tokensToActivate = investorBalance.div(activationDivisor);\n      GNIToken(inactiveToken_).burnFrom(investors[i].addr, tokensToActivate);\n      GNIToken(activeToken_).mint(investors[i].addr, tokensToActivate);\n\n      uint256 voteCredit = investors[i].votes[projectId];\n      investors[i].votes[projectId] = 0;\n      investors[i].voteCredit = investors[i].voteCredit.add(voteCredit);\n    }\n  }\n\n  function forwardFunds (address _to, uint256 amount) internal {\n    _to.transfer(amount);\n    weiRaised = weiRaised.sub(amount);\n  }\n\n  //we want this to be called on an interval\n  function distributeDividends () external {\n    //store the total amount of wei in a variable\n    //iterate through each investor.\n    //divide the total active tokens by the number of active investor tokens.\n    //divide the total wei by the resulting number to find out how much to wei to transfer\n    uint256 activeTokens = GNIToken(activeToken_).totalSupply();\n    uint256 profits = address(this).balance.sub(weiRaised);\n\n    for (uint256 i = 0; i < investors.length; i = i.add(1)) {\n      grantDividend(investors[i].addr, activeTokens, profits);\n    }\n\n    grantDividend(developer, activeTokens, profits);\n  }\n\n  function grantDividend (address investor, uint256 activeTokens, uint256 profits) private {\n    uint256 investorActive = GNIToken(activeToken_).balanceOf(investor);\n    uint256 investorShare = activeTokens.div(investorActive);\n    uint256 dividend = profits.div(investorShare);\n    investor.transfer(dividend);\n  }\n}\n",
  "sourcePath": "/Users/steven/genie-portal/truffle/contracts/crowdsale/GNITokenCrowdsale.sol",
  "compiler": {
    "name": "solc",
    "version": "0.4.24+commit.e67f0147.Emscripten.clang"
  },
  "schemaVersion": "2.0.1",
  "updatedAt": "2018-10-24T20:33:22.639Z"
}