{
  "contractName": "GNITokenCrowdsale",
  "abi": [
    {
      "constant": true,
      "inputs": [],
      "name": "doSomething",
      "outputs": [
        {
          "name": "",
          "type": "uint256"
        }
      ],
      "payable": false,
      "stateMutability": "pure",
      "type": "function"
    }
  ],
  "bytecode": "0x6080604052348015600f57600080fd5b5060a18061001e6000396000f300608060405260043610603f576000357c0100000000000000000000000000000000000000000000000000000000900463ffffffff16806382692679146044575b600080fd5b348015604f57600080fd5b506056606c565b6040518082815260200191505060405180910390f35b600060029050905600a165627a7a723058209dfebb189f490e420a00eb1639f88965d91ea0bad08b637a6b0cbb86d2b139940029",
  "source": "pragma solidity 0.4.24;\nimport './TimedCrowdsale.sol';\nimport '../utility/SafeMath.sol';\nimport '../Project.sol';\nimport '../token/ERC20/Token.sol';\nimport '../InvestorList.sol';\n\ncontract GNITokenCrowdsale{\n  using SafeMath for uint256;\n\n  /* uint256 public totalValuation; */\n  /* InvestorList private investorList; */\n\n  /* constructor\n      (\n        uint256 _openingTime,\n        uint256 _doomsDay,\n        uint256 _rate,\n        address _developer,\n        Token _token,\n        InvestorList _investorList\n      )\n      public\n      TimedCrowdsale(_openingTime, _doomsDay) {\n        investorList = InvestorList(_investorList);\n        totalValuation = 0;\n      } */\n\n\n  function doSomething() public pure returns (uint256) {\n      return 2;\n  }\n}\n",
  "sourcePath": "/Users/raquibhossain/Desktop/new_genus/genie-portal/truffle/contracts/crowdsale/GNITokenCrowdsale.sol",
  "compiler": {
    "name": "solc",
    "version": "0.4.24+commit.e67f0147.Emscripten.clang"
  },
  "schemaVersion": "2.0.1",
  "updatedAt": "2018-11-05T22:26:13.853Z"
}