{
  "contractName": "TimedCrowdsale",
  "abi": [
    {
      "constant": true,
      "inputs": [],
      "name": "openingTime",
      "outputs": [
        {
          "name": "",
          "type": "uint256"
        }
      ],
      "payable": false,
      "stateMutability": "view",
      "type": "function"
    },
    {
      "constant": true,
      "inputs": [],
      "name": "doomsDay",
      "outputs": [
        {
          "name": "",
          "type": "uint256"
        }
      ],
      "payable": false,
      "stateMutability": "view",
      "type": "function"
    },
    {
      "inputs": [
        {
          "name": "_openingTime",
          "type": "uint256"
        },
        {
          "name": "_doomsDay",
          "type": "uint256"
        }
      ],
      "payable": false,
      "stateMutability": "nonpayable",
      "type": "constructor"
    },
    {
      "constant": true,
      "inputs": [],
      "name": "hasClosed",
      "outputs": [
        {
          "name": "",
          "type": "bool"
        }
      ],
      "payable": false,
      "stateMutability": "view",
      "type": "function"
    }
  ],
  "bytecode": "0x608060405234801561001057600080fd5b50604051604080610192833981018060405281019080805190602001909291908051906020019092919050505042821015151561004c57600080fd5b81811015151561005b57600080fd5b816000819055508060018190555050506101188061007a6000396000f3006080604052600436106053576000357c0100000000000000000000000000000000000000000000000000000000900463ffffffff1680631515bc2b146058578063b7a8807c146084578063c19b7bc01460ac575b600080fd5b348015606357600080fd5b50606a60d4565b604051808215151515815260200191505060405180910390f35b348015608f57600080fd5b50609660e0565b6040518082815260200191505060405180910390f35b34801560b757600080fd5b5060be60e6565b6040518082815260200191505060405180910390f35b60006001544211905090565b60005481565b600154815600a165627a7a7230582048f144ae1434a15082bfbf954e0f9b2499e847162135d4e1ba68d3911a17c3960029",
  "source": "pragma solidity ^0.4.24;\n\nimport '../utility/SafeMath.sol';\nimport \"./Crowdsale.sol\";\n\n\n/**\n * @title TimedCrowdsale\n * @dev Crowdsale accepting contributions only within a time frame.\n */\ncontract TimedCrowdsale {\n  using SafeMath for uint256;\n\n  uint256 public openingTime;\n  uint256 public doomsDay;\n\n  /**\n   * @dev Reverts if not in crowdsale time range.\n   */\n  modifier onlyWhileOpen {\n    // solium-disable-next-line security/no-block-members\n    uint timestamp = block.timestamp;\n    uint time1 = openingTime;\n    uint time2 = doomsDay;\n    require(block.timestamp >= openingTime && block.timestamp <= doomsDay);\n    _;\n  }\n\n  /**\n   * @dev Constructor, takes crowdsale opening and closing times.\n   * @param _openingTime Crowdsale opening time\n   * @param _doomsDay Crowdsale closing time\n   */\n  constructor(uint256 _openingTime, uint256 _doomsDay) public {\n    // solium-disable-next-line security/no-block-members\n    require(_openingTime >= block.timestamp);\n    require(_doomsDay >= _openingTime);\n\n    openingTime = _openingTime;\n    doomsDay = _doomsDay;\n  }\n\n  /**\n   * @dev Checks whether the period in which the crowdsale is open has already elapsed.\n   * @return Whether crowdsale period has elapsed\n   */\n  function hasClosed() public view returns (bool) {\n    // solium-disable-next-line security/no-block-members\n    return block.timestamp > doomsDay;\n  }\n\n  /**\n   * @dev Extend parent behavior requiring to be within contributing period\n   * @param _beneficiary Token purchaser\n   * @param _weiAmount Amount of wei contributed\n   */\n  /* function _preValidatePurchase(\n    address _beneficiary,\n    uint256 _weiAmount\n  )\n    internal\n    onlyWhileOpen\n  {\n    super._preValidatePurchase(_beneficiary, _weiAmount);\n  } */\n\n}\n",
  "sourcePath": "/Users/raquibhossain/Desktop/new_genus/genie-portal/truffle/contracts/crowdsale/TimedCrowdsale.sol",
  "compiler": {
    "name": "solc",
    "version": "0.4.24+commit.e67f0147.Emscripten.clang"
  },
  "schemaVersion": "2.0.1",
  "updatedAt": "2018-10-30T20:24:11.036Z"
}